{
  "contractName": "CustomerContract",
  "abi": [
    {
      "constant": true,
      "inputs": [
        {
          "name": "",
          "type": "uint256"
        }
      ],
      "name": "customers",
      "outputs": [
        {
          "name": "id",
          "type": "uint256"
        },
        {
          "name": "ownerFullName",
          "type": "string"
        },
        {
          "name": "carMake",
          "type": "string"
        },
        {
          "name": "carModel",
          "type": "string"
        },
        {
          "name": "extraDe",
          "type": "string"
        },
        {
          "name": "exist",
          "type": "bool"
        }
      ],
      "payable": false,
      "stateMutability": "view",
      "type": "function"
    },
    {
      "constant": true,
      "inputs": [
        {
          "name": "",
          "type": "uint256"
        }
      ],
      "name": "customerIndex",
      "outputs": [
        {
          "name": "",
          "type": "uint256"
        }
      ],
      "payable": false,
      "stateMutability": "view",
      "type": "function"
    },
    {
      "constant": true,
      "inputs": [
        {
          "name": "index",
          "type": "uint256"
        }
      ],
      "name": "getNumOfPhotos",
      "outputs": [
        {
          "name": "",
          "type": "uint256"
        }
      ],
      "payable": false,
      "stateMutability": "view",
      "type": "function"
    },
    {
      "constant": false,
      "inputs": [
        {
          "name": "index",
          "type": "uint256"
        },
        {
          "name": "carImage",
          "type": "string"
        }
      ],
      "name": "addCustomerPhotos",
      "outputs": [],
      "payable": false,
      "stateMutability": "nonpayable",
      "type": "function"
    },
    {
      "constant": false,
      "inputs": [
        {
          "name": "index",
          "type": "uint256"
        },
        {
          "name": "_index",
          "type": "uint256"
        },
        {
          "name": "_carImg",
          "type": "string"
        }
      ],
      "name": "updateCustomerPhotos",
      "outputs": [],
      "payable": false,
      "stateMutability": "nonpayable",
      "type": "function"
    },
    {
      "constant": true,
      "inputs": [
        {
          "name": "index",
          "type": "uint256"
        },
        {
          "name": "_ImgIndex",
          "type": "uint256"
        }
      ],
      "name": "getCustomerPhotos",
      "outputs": [
        {
          "name": "",
          "type": "string"
        }
      ],
      "payable": false,
      "stateMutability": "view",
      "type": "function"
    },
    {
      "constant": true,
      "inputs": [
        {
          "name": "index",
          "type": "uint256"
        }
      ],
      "name": "getCustomer",
      "outputs": [
        {
          "name": "",
          "type": "uint256"
        },
        {
          "name": "",
          "type": "string"
        },
        {
          "name": "",
          "type": "string"
        },
        {
          "name": "",
          "type": "string"
        },
        {
          "name": "",
          "type": "string"
        }
      ],
      "payable": false,
      "stateMutability": "view",
      "type": "function"
    },
    {
      "constant": true,
      "inputs": [
        {
          "name": "index",
          "type": "uint256"
        }
      ],
      "name": "isCustomer",
      "outputs": [
        {
          "name": "isIndeed",
          "type": "bool"
        }
      ],
      "payable": false,
      "stateMutability": "view",
      "type": "function"
    },
    {
      "constant": false,
      "inputs": [
        {
          "name": "index",
          "type": "uint256"
        }
      ],
      "name": "deleteCustomer",
      "outputs": [
        {
          "name": "success",
          "type": "bool"
        }
      ],
      "payable": false,
      "stateMutability": "nonpayable",
      "type": "function"
    },
    {
      "constant": false,
      "inputs": [
        {
          "name": "index",
          "type": "uint256"
        },
        {
          "name": "_fullName",
          "type": "string"
        },
        {
          "name": "_carMake",
          "type": "string"
        },
        {
          "name": "_carModel",
          "type": "string"
        },
        {
          "name": "_extraDe",
          "type": "string"
        }
      ],
      "name": "createCustomer",
      "outputs": [],
      "payable": false,
      "stateMutability": "nonpayable",
      "type": "function"
    },
    {
      "constant": false,
      "inputs": [],
      "name": "getNumOfCustomers",
      "outputs": [
        {
          "name": "",
          "type": "uint256"
        }
      ],
      "payable": false,
      "stateMutability": "nonpayable",
      "type": "function"
    },
    {
      "constant": false,
      "inputs": [
        {
          "name": "index",
          "type": "uint256"
        },
        {
          "name": "_fullName",
          "type": "string"
        },
        {
          "name": "_carMake",
          "type": "string"
        },
        {
          "name": "_carModel",
          "type": "string"
        },
        {
          "name": "_extraDe",
          "type": "string"
        }
      ],
      "name": "updateCustomer",
      "outputs": [],
      "payable": false,
      "stateMutability": "nonpayable",
      "type": "function"
    }
  ],
  "bytecode": "0x608060405234801561001057600080fd5b5061169d806100206000396000f3006080604052600436106100ba576000357c0100000000000000000000000000000000000000000000000000000000900463ffffffff16806325fa40f0146100bf5780632b4044a51461020457806356d7548f146102b45780635e3c5bbd146102f95780636d33401d1461036c578063ad3330ab146103e9578063c0abda2a1461042e578063c628dd0e1461062a578063cc8ef70314610655578063d21f22f614610696578063eb876f27146107db578063f3d405c7146109cc575b600080fd5b3480156100cb57600080fd5b5061020260048036038101908080359060200190929190803590602001908201803590602001908080601f0160208091040260200160405190810160405280939291908181526020018383808284378201915050505050509192919290803590602001908201803590602001908080601f0160208091040260200160405190810160405280939291908181526020018383808284378201915050505050509192919290803590602001908201803590602001908080601f0160208091040260200160405190810160405280939291908181526020018383808284378201915050505050509192919290803590602001908201803590602001908080601f0160208091040260200160405190810160405280939291908181526020018383808284378201915050505050509192919290505050610a0d565b005b34801561021057600080fd5b506102396004803603810190808035906020019092919080359060200190929190505050610b65565b6040518080602001828103825283818151815260200191508051906020019080838360005b8381101561027957808201518184015260208101905061025e565b50505050905090810190601f1680156102a65780820380516001836020036101000a031916815260200191505b509250505060405180910390f35b3480156102c057600080fd5b506102df60048036038101908080359060200190929190505050610c3a565b604051808215151515815260200191505060405180910390f35b34801561030557600080fd5b5061036a60048036038101908080359060200190929190803590602001908201803590602001908080601f0160208091040260200160405190810160405280939291908181526020018383808284378201915050505050509192919290505050610d67565b005b34801561037857600080fd5b506103e76004803603810190808035906020019092919080359060200190929190803590602001908201803590602001908080601f0160208091040260200160405190810160405280939291908181526020018383808284378201915050505050509192919290505050610dbd565b005b3480156103f557600080fd5b5061041460048036038101908080359060200190929190505050610e03565b604051808215151515815260200191505060405180910390f35b34801561043a57600080fd5b5061045960048036038101908080359060200190929190505050610e54565b60405180878152602001806020018060200180602001806020018615151515815260200185810385528a818151815260200191508051906020019080838360005b838110156104b557808201518184015260208101905061049a565b50505050905090810190601f1680156104e25780820380516001836020036101000a031916815260200191505b50858103845289818151815260200191508051906020019080838360005b8381101561051b578082015181840152602081019050610500565b50505050905090810190601f1680156105485780820380516001836020036101000a031916815260200191505b50858103835288818151815260200191508051906020019080838360005b83811015610581578082015181840152602081019050610566565b50505050905090810190601f1680156105ae5780820380516001836020036101000a031916815260200191505b50858103825287818151815260200191508051906020019080838360005b838110156105e75780820151818401526020810190506105cc565b50505050905090810190601f1680156106145780820380516001836020036101000a031916815260200191505b509a505050505050505050505060405180910390f35b34801561063657600080fd5b5061063f6110fd565b6040518082815260200191505060405180910390f35b34801561066157600080fd5b506106806004803603810190808035906020019092919050505061110a565b6040518082815260200191505060405180910390f35b3480156106a257600080fd5b506107d960048036038101908080359060200190929190803590602001908201803590602001908080601f0160208091040260200160405190810160405280939291908181526020018383808284378201915050505050509192919290803590602001908201803590602001908080601f0160208091040260200160405190810160405280939291908181526020018383808284378201915050505050509192919290803590602001908201803590602001908080601f0160208091040260200160405190810160405280939291908181526020018383808284378201915050505050509192919290803590602001908201803590602001908080601f0160208091040260200160405190810160405280939291908181526020018383808284378201915050505050509192919290505050611140565b005b3480156107e757600080fd5b5061080660048036038101908080359060200190929190505050611231565b6040518086815260200180602001806020018060200180602001858103855289818151815260200191508051906020019080838360005b8381101561085857808201518184015260208101905061083d565b50505050905090810190601f1680156108855780820380516001836020036101000a031916815260200191505b50858103845288818151815260200191508051906020019080838360005b838110156108be5780820151818401526020810190506108a3565b50505050905090810190601f1680156108eb5780820380516001836020036101000a031916815260200191505b50858103835287818151815260200191508051906020019080838360005b83811015610924578082015181840152602081019050610909565b50505050905090810190601f1680156109515780820380516001836020036101000a031916815260200191505b50858103825286818151815260200191508051906020019080838360005b8381101561098a57808201518184015260208101905061096f565b50505050905090810190601f1680156109b75780820380516001836020036101000a031916815260200191505b50995050505050505050505060405180910390f35b3480156109d857600080fd5b506109f7600480360381019080803590602001909291905050506114e8565b6040518082815260200191505060405180910390f35b600080600087815260200190815260200160002090508060060160009054906101000a900460ff16151515610a4157600080fd5b8560008088815260200190815260200160002060000181905550846000808881526020019081526020016000206001019080519060200190610a8492919061150b565b50836000808881526020019081526020016000206002019080519060200190610aae92919061150b565b50826000808881526020019081526020016000206003019080519060200190610ad892919061150b565b50816000808881526020019081526020016000206004019080519060200190610b0292919061150b565b50600160008088815260200190815260200160002060060160006101000a81548160ff0219169083151502179055506001869080600181540180825580915050906001820390600052602060002001600090919290919091505550505050505050565b6060600080600085815260200190815260200160002090508060050183815481101515610b8e57fe5b906000526020600020018054600181600116156101000203166002900480601f016020809104026020016040519081016040528092919081815260200182805460018160011615610100020316600290048015610c2c5780601f10610c0157610100808354040283529160200191610c2c565b820191906000526020600020905b815481529060010190602001808311610c0f57829003601f168201915b505050505091505092915050565b6000806000610c4884610e03565b1515610c5357600080fd5b600080858152602001908152602001600020600001549150600180808054905003815481101515610c8057fe5b9060005260206000200154905080600183815481101515610c9d57fe5b90600052602060002001819055508160008083815260200190815260200160002060000181905550600080828152602001908152602001600020600080820160009055600182016000610cf0919061158b565b600282016000610d00919061158b565b600382016000610d10919061158b565b600482016000610d20919061158b565b600582016000610d3091906115d3565b6006820160006101000a81549060ff021916905550506001805480919060019003610d5b91906115f4565b50600192505050919050565b600080838152602001908152602001600020600501819080600181540180825580915050906001820390600052602060002001600090919290919091509080519060200190610db792919061150b565b50505050565b8060008085815260200190815260200160002060050183815481101515610de057fe5b906000526020600020019080519060200190610dfd92919061150b565b50505050565b6000806001805490501415610e1b5760009050610e4f565b81600160008085815260200190815260200160002060000154815481101515610e4057fe5b90600052602060002001541490505b919050565b6000602052806000526040600020600091509050806000015490806001018054600181600116156101000203166002900480601f016020809104026020016040519081016040528092919081815260200182805460018160011615610100020316600290048015610f065780601f10610edb57610100808354040283529160200191610f06565b820191906000526020600020905b815481529060010190602001808311610ee957829003601f168201915b505050505090806002018054600181600116156101000203166002900480601f016020809104026020016040519081016040528092919081815260200182805460018160011615610100020316600290048015610fa45780601f10610f7957610100808354040283529160200191610fa4565b820191906000526020600020905b815481529060010190602001808311610f8757829003601f168201915b505050505090806003018054600181600116156101000203166002900480601f0160208091040260200160405190810160405280929190818152602001828054600181600116156101000203166002900480156110425780601f1061101757610100808354040283529160200191611042565b820191906000526020600020905b81548152906001019060200180831161102557829003601f168201915b505050505090806004018054600181600116156101000203166002900480601f0160208091040260200160405190810160405280929190818152602001828054600181600116156101000203166002900480156110e05780601f106110b5576101008083540402835291602001916110e0565b820191906000526020600020905b8154815290600101906020018083116110c357829003601f168201915b5050505050908060060160009054906101000a900460ff16905086565b6000600180549050905090565b600061111582610e03565b151561112057600080fd5b600080838152602001908152602001600020600501805490509050919050565b61114985610e03565b151561115457600080fd5b83600080878152602001908152602001600020600101908051906020019061117d92919061150b565b508260008087815260200190815260200160002060020190805190602001906111a792919061150b565b508160008087815260200190815260200160002060030190805190602001906111d192919061150b565b508060008087815260200190815260200160002060040190805190602001906111fb92919061150b565b50600080600087815260200190815260200160002060060160006101000a81548160ff0219169083151502179055505050505050565b600060608060608060008060008881526020019081526020016000209050806000015481600101826002018360030184600401838054600181600116156101000203166002900480601f0160208091040260200160405190810160405280929190818152602001828054600181600116156101000203166002900480156112f95780601f106112ce576101008083540402835291602001916112f9565b820191906000526020600020905b8154815290600101906020018083116112dc57829003601f168201915b50505050509350828054600181600116156101000203166002900480601f0160208091040260200160405190810160405280929190818152602001828054600181600116156101000203166002900480156113955780601f1061136a57610100808354040283529160200191611395565b820191906000526020600020905b81548152906001019060200180831161137857829003601f168201915b50505050509250818054600181600116156101000203166002900480601f0160208091040260200160405190810160405280929190818152602001828054600181600116156101000203166002900480156114315780601f1061140657610100808354040283529160200191611431565b820191906000526020600020905b81548152906001019060200180831161141457829003601f168201915b50505050509150808054600181600116156101000203166002900480601f0160208091040260200160405190810160405280929190818152602001828054600181600116156101000203166002900480156114cd5780601f106114a2576101008083540402835291602001916114cd565b820191906000526020600020905b8154815290600101906020018083116114b057829003601f168201915b50505050509050955095509550955095505091939590929450565b6001818154811015156114f757fe5b906000526020600020016000915090505481565b828054600181600116156101000203166002900490600052602060002090601f016020900481019282601f1061154c57805160ff191683800117855561157a565b8280016001018555821561157a579182015b8281111561157957825182559160200191906001019061155e565b5b5090506115879190611620565b5090565b50805460018160011615610100020316600290046000825580601f106115b157506115d0565b601f0160209004906000526020600020908101906115cf9190611620565b5b50565b50805460008255906000526020600020908101906115f19190611645565b50565b81548183558181111561161b5781836000526020600020918201910161161a9190611620565b5b505050565b61164291905b8082111561163e576000816000905550600101611626565b5090565b90565b61166e91905b8082111561166a5760008181611661919061158b565b5060010161164b565b5090565b905600a165627a7a723058209a494805622d496ab4100defa7cf7f07e7ecbef4f2091ee09ca8b56abc9b08d30029",
  "source": "pragma solidity ^0.4.23;\n\ncontract CustomerContract {\n    struct Customer {\n\n        uint256 id;\n        string ownerFullName;\n        string carMake;\n        string carModel;\n        string extraDe;\n        string[] photos;\n        bool exist;\n\n    }\n    mapping(uint256=> Customer) public customers;\n    uint256[] public customerIndex;\n\n\n    function getNumOfPhotos(uint256 index) public view returns(uint256) {\n        if(!isCustomer(index)) revert();\n        return customers[index].photos.length;\n    }\n\n\n    // update an image by index\n    function addCustomerPhotos(uint256 index, string carImage) public {\n        customers[index].photos.push(carImage);\n       // Customer memory  appendedCustomerImages = customers[index];\n        //customers[index].photos[_index] = _carImg;\n    }\n\n   // update an image by index\n    function updateCustomerPhotos(uint256 index, uint256 _index, string _carImg) public {\n        //Customer storage  customerImages =\n        customers[index].photos[_index] = _carImg;\n    }\n\n    //Getter methods are marked view.\n    // Solidity can't return string arrays. So we'll have to provide the Image index of the piece of data we want\n    function getCustomerPhotos(uint256 index, uint256 _ImgIndex) public view returns (string) {\n        Customer storage customer = customers[index];\n        return (customer.photos[_ImgIndex]);\n        //return customers[index].data[_carImg];\n    }\n\n\n    /*function getNumOfPhotos(uint256 index) public returns (uint256) {\n        Customer storage customer = customers[index];\n        return customer.photos.length;\n    }\n    */\n\n\n    function getCustomer(uint256 index) public view returns (uint256, string , string , string , string ) {\n        Customer storage customer = customers[index];\n        return (customer.id, customer.ownerFullName, customer.carMake, customer.carModel, customer.extraDe);\n    }\n\n\n    function isCustomer(uint256 index) public constant returns(bool isIndeed) {\n        if(customerIndex.length == 0) return false;\n        return (customerIndex[customers[index].id] == index);\n    }\n\n\n    function deleteCustomer(uint256 index) public returns(bool success) {\n        if(!isCustomer(index)) revert();\n        uint256 rowToDelete = customers[index].id;\n        uint256 keyToMove   = customerIndex[customerIndex.length-1];\n        customerIndex[rowToDelete] = keyToMove;\n        customers[keyToMove].id = rowToDelete;\n        delete customers[keyToMove];\n        customerIndex.length--;\n        return true;\n    }\n\n\n\n    //Good to know !!\n    //that  If you use memory, then you're making a copy of the struct in memory and then updating that.\n    // and If you use \" storage \", you'll get a reference to the struct in storage, so your modifications will be persisted.\n    function createCustomer(uint256 index, string _fullName,string _carMake,string _carModel,string _extraDe) public {\n        Customer storage customer = customers[index];\n        require(!customer.exist);\n\n        /*\n        //Another way of creating a new customer but since solidity does not accept string [], so cannot this way use it in my case\n        customers[index] = Customer({\n            id:index,\n            ownerFullName: _fullName,\n            carMake: _carMake,\n            carModel: _carModel,\n            extraDe: _extraDe,\n            photos: ???,   <------ !!\n            exist: true\n\n            });\n         */\n        customers[index].id = index;\n        customers[index].ownerFullName = _fullName;\n        customers[index].carMake = _carMake;\n        customers[index].carModel = _carModel;\n        customers[index].extraDe = _extraDe;\n        customers[index].exist = true;\n        customerIndex.push(index);\n    }\n\n\n\n    // Getting the length of the customer array which represent the number of customers save in blockchain\n    function getNumOfCustomers() public returns (uint256) {\n        return customerIndex.length;\n    }\n\n\n    //Updating customers by index\n    function updateCustomer(uint256 index, string _fullName,string _carMake,string _carModel,string _extraDe) public {\n        // A shorter way to update a customer\n       // Customer memory  updatedCustomer = Customer(index, _fullName, _carMake, _carModel, _extraDe, false);\n        if(!isCustomer(index)) revert();\n        customers[index].ownerFullName = _fullName;\n        customers[index].carMake = _carMake;\n        customers[index].carModel = _carModel;\n        customers[index].extraDe = _extraDe;\n        customers[index].exist = false;\n\n    }\n\n\n}",
  "sourcePath": "/Users/mahmoud/Downloads/ReactApps/car_gallery_dapp/src/contracts/CustomerContract.sol",
  "compiler": {
    "name": "solc",
    "version": "0.4.24+commit.e67f0147.Emscripten.clang"
  },
  "schemaVersion": "2.0.1",
  "updatedAt": "2018-09-15T21:32:32.922Z"
}